{
  "_format": "hh-sol-artifact-1",
  "contractName": "Voting",
  "sourceName": "contracts/Voting.sol",
  "abi": [
    {
      "inputs": [],
      "stateMutability": "nonpayable",
      "type": "constructor"
    },
    {
      "inputs": [
        {
          "internalType": "address",
          "name": "owner",
          "type": "address"
        }
      ],
      "name": "OwnableInvalidOwner",
      "type": "error"
    },
    {
      "inputs": [
        {
          "internalType": "address",
          "name": "account",
          "type": "address"
        }
      ],
      "name": "OwnableUnauthorizedAccount",
      "type": "error"
    },
    {
      "anonymous": false,
      "inputs": [
        {
          "indexed": true,
          "internalType": "address",
          "name": "previousOwner",
          "type": "address"
        },
        {
          "indexed": true,
          "internalType": "address",
          "name": "newOwner",
          "type": "address"
        }
      ],
      "name": "OwnershipTransferred",
      "type": "event"
    },
    {
      "inputs": [
        {
          "internalType": "string",
          "name": "_title",
          "type": "string"
        },
        {
          "internalType": "string[]",
          "name": "_candidates",
          "type": "string[]"
        },
        {
          "internalType": "uint256",
          "name": "_duration",
          "type": "uint256"
        }
      ],
      "name": "createElection",
      "outputs": [],
      "stateMutability": "nonpayable",
      "type": "function"
    },
    {
      "inputs": [],
      "name": "election",
      "outputs": [
        {
          "internalType": "string",
          "name": "title",
          "type": "string"
        },
        {
          "internalType": "uint256",
          "name": "endTime",
          "type": "uint256"
        },
        {
          "internalType": "bool",
          "name": "active",
          "type": "bool"
        }
      ],
      "stateMutability": "view",
      "type": "function"
    },
    {
      "inputs": [],
      "name": "getResults",
      "outputs": [
        {
          "internalType": "uint256[]",
          "name": "",
          "type": "uint256[]"
        }
      ],
      "stateMutability": "view",
      "type": "function"
    },
    {
      "inputs": [],
      "name": "getWinner",
      "outputs": [
        {
          "internalType": "string",
          "name": "",
          "type": "string"
        }
      ],
      "stateMutability": "view",
      "type": "function"
    },
    {
      "inputs": [
        {
          "internalType": "address",
          "name": "_voter",
          "type": "address"
        }
      ],
      "name": "hasVoted",
      "outputs": [
        {
          "internalType": "bool",
          "name": "",
          "type": "bool"
        }
      ],
      "stateMutability": "view",
      "type": "function"
    },
    {
      "inputs": [],
      "name": "owner",
      "outputs": [
        {
          "internalType": "address",
          "name": "",
          "type": "address"
        }
      ],
      "stateMutability": "view",
      "type": "function"
    },
    {
      "inputs": [],
      "name": "renounceOwnership",
      "outputs": [],
      "stateMutability": "nonpayable",
      "type": "function"
    },
    {
      "inputs": [
        {
          "internalType": "address",
          "name": "newOwner",
          "type": "address"
        }
      ],
      "name": "transferOwnership",
      "outputs": [],
      "stateMutability": "nonpayable",
      "type": "function"
    },
    {
      "inputs": [
        {
          "internalType": "uint256",
          "name": "_candidateIndex",
          "type": "uint256"
        }
      ],
      "name": "vote",
      "outputs": [],
      "stateMutability": "nonpayable",
      "type": "function"
    },
    {
      "inputs": [
        {
          "internalType": "address",
          "name": "",
          "type": "address"
        }
      ],
      "name": "voted",
      "outputs": [
        {
          "internalType": "bool",
          "name": "",
          "type": "bool"
        }
      ],
      "stateMutability": "view",
      "type": "function"
    },
    {
      "inputs": [
        {
          "internalType": "uint256",
          "name": "",
          "type": "uint256"
        }
      ],
      "name": "votes",
      "outputs": [
        {
          "internalType": "uint256",
          "name": "",
          "type": "uint256"
        }
      ],
      "stateMutability": "view",
      "type": "function"
    }
  ],
  "bytecode": "0x60806040523480156200001157600080fd5b5033600073ffffffffffffffffffffffffffffffffffffffff168173ffffffffffffffffffffffffffffffffffffffff1603620000885760006040517f1e4fbdf70000000000000000000000000000000000000000000000000000000081526004016200007f9190620001a9565b60405180910390fd5b6200009981620000a060201b60201c565b50620001c6565b60008060009054906101000a900473ffffffffffffffffffffffffffffffffffffffff169050816000806101000a81548173ffffffffffffffffffffffffffffffffffffffff021916908373ffffffffffffffffffffffffffffffffffffffff1602179055508173ffffffffffffffffffffffffffffffffffffffff168173ffffffffffffffffffffffffffffffffffffffff167f8be0079c531659141344cd1fd0a4f28419497f9722a3daafe3b4186f6b6457e060405160405180910390a35050565b600073ffffffffffffffffffffffffffffffffffffffff82169050919050565b6000620001918262000164565b9050919050565b620001a38162000184565b82525050565b6000602082019050620001c0600083018462000198565b92915050565b61163880620001d66000396000f3fe608060405234801561001057600080fd5b50600436106100a95760003560e01c8063715018a611610071578063715018a6146101685780638da5cb5b146101725780638e7ea5b214610190578063aec2ccae146101ae578063b31dc875146101de578063f2fde38b146101fa576100a9565b80630121b93f146100ae57806309eef43e146100ca5780634717f97c146100fa5780634b1d3ede146101185780635df8133014610138575b600080fd5b6100c860048036038101906100c39190610ae2565b610216565b005b6100e460048036038101906100df9190610b6d565b610409565b6040516100f19190610bb5565b60405180910390f35b61010261045f565b60405161010f9190610c8e565b60405180910390f35b610120610515565b60405161012f93929190610d4f565b60405180910390f35b610152600480360381019061014d9190610ae2565b6105c2565b60405161015f9190610d8d565b60405180910390f35b6101706105da565b005b61017a6105ee565b6040516101879190610db7565b60405180910390f35b610198610617565b6040516101a59190610dd2565b60405180910390f35b6101c860048036038101906101c39190610b6d565b610727565b6040516101d59190610bb5565b60405180910390f35b6101f860048036038101906101f3919061100f565b610747565b005b610214600480360381019061020f9190610b6d565b6107e5565b005b600160030160009054906101000a900460ff16610268576040517f08c379a000000000000000000000000000000000000000000000000000000000815260040161025f906110e6565b60405180910390fd5b60016002015442106102af576040517f08c379a00000000000000000000000000000000000000000000000000000000081526004016102a690611152565b60405180910390fd5b600560003373ffffffffffffffffffffffffffffffffffffffff1673ffffffffffffffffffffffffffffffffffffffff16815260200190815260200160002060009054906101000a900460ff161561033c576040517f08c379a0000000000000000000000000000000000000000000000000000000008152600401610333906111be565b60405180910390fd5b60018001805490508110610385576040517f08c379a000000000000000000000000000000000000000000000000000000000815260040161037c9061122a565b60405180910390fd5b6006600082815260200190815260200160002060008154809291906103a990611279565b91905055506001600560003373ffffffffffffffffffffffffffffffffffffffff1673ffffffffffffffffffffffffffffffffffffffff16815260200190815260200160002060006101000a81548160ff02191690831515021790555050565b6000600560008373ffffffffffffffffffffffffffffffffffffffff1673ffffffffffffffffffffffffffffffffffffffff16815260200190815260200160002060009054906101000a900460ff169050919050565b60606000600180018054905067ffffffffffffffff81111561048457610483610dfe565b5b6040519080825280602002602001820160405280156104b25781602001602082028036833780820191505090505b50905060005b600180018054905081101561050d5760066000828152602001908152602001600020548282815181106104ee576104ed6112c1565b5b602002602001018181525050808061050590611279565b9150506104b8565b508091505090565b60018060000180546105269061131f565b80601f01602080910402602001604051908101604052809291908181526020018280546105529061131f565b801561059f5780601f106105745761010080835404028352916020019161059f565b820191906000526020600020905b81548152906001019060200180831161058257829003601f168201915b5050505050908060020154908060030160009054906101000a900460ff16905083565b60066020528060005260406000206000915090505481565b6105e261086b565b6105ec60006108f2565b565b60008060009054906101000a900473ffffffffffffffffffffffffffffffffffffffff16905090565b606060008060005b600180018054905081101561067657826006600083815260200190815260200160002054111561066357600660008281526020019081526020016000205492508091505b808061066e90611279565b91505061061f565b5060018001818154811061068d5761068c6112c1565b5b9060005260206000200180546106a29061131f565b80601f01602080910402602001604051908101604052809291908181526020018280546106ce9061131f565b801561071b5780601f106106f05761010080835404028352916020019161071b565b820191906000526020600020905b8154815290600101906020018083116106fe57829003601f168201915b50505050509250505090565b60056020528060005260406000206000915054906101000a900460ff1681565b61074f61086b565b604051806080016040528084815260200183815260200182426107729190611350565b815260200160011515815250600160008201518160000190816107959190611530565b5060208201518160010190805190602001906107b29291906109be565b506040820151816002015560608201518160030160006101000a81548160ff021916908315150217905550905050505050565b6107ed61086b565b600073ffffffffffffffffffffffffffffffffffffffff168173ffffffffffffffffffffffffffffffffffffffff160361085f5760006040517f1e4fbdf70000000000000000000000000000000000000000000000000000000081526004016108569190610db7565b60405180910390fd5b610868816108f2565b50565b6108736109b6565b73ffffffffffffffffffffffffffffffffffffffff166108916105ee565b73ffffffffffffffffffffffffffffffffffffffff16146108f0576108b46109b6565b6040517f118cdaa70000000000000000000000000000000000000000000000000000000081526004016108e79190610db7565b60405180910390fd5b565b60008060009054906101000a900473ffffffffffffffffffffffffffffffffffffffff169050816000806101000a81548173ffffffffffffffffffffffffffffffffffffffff021916908373ffffffffffffffffffffffffffffffffffffffff1602179055508173ffffffffffffffffffffffffffffffffffffffff168173ffffffffffffffffffffffffffffffffffffffff167f8be0079c531659141344cd1fd0a4f28419497f9722a3daafe3b4186f6b6457e060405160405180910390a35050565b600033905090565b828054828255906000526020600020908101928215610a06579160200282015b82811115610a055782518290816109f59190611530565b50916020019190600101906109de565b5b509050610a139190610a17565b5090565b5b80821115610a375760008181610a2e9190610a3b565b50600101610a18565b5090565b508054610a479061131f565b6000825580601f10610a595750610a78565b601f016020900490600052602060002090810190610a779190610a7b565b5b50565b5b80821115610a94576000816000905550600101610a7c565b5090565b6000604051905090565b600080fd5b600080fd5b6000819050919050565b610abf81610aac565b8114610aca57600080fd5b50565b600081359050610adc81610ab6565b92915050565b600060208284031215610af857610af7610aa2565b5b6000610b0684828501610acd565b91505092915050565b600073ffffffffffffffffffffffffffffffffffffffff82169050919050565b6000610b3a82610b0f565b9050919050565b610b4a81610b2f565b8114610b5557600080fd5b50565b600081359050610b6781610b41565b92915050565b600060208284031215610b8357610b82610aa2565b5b6000610b9184828501610b58565b91505092915050565b60008115159050919050565b610baf81610b9a565b82525050565b6000602082019050610bca6000830184610ba6565b92915050565b600081519050919050565b600082825260208201905092915050565b6000819050602082019050919050565b610c0581610aac565b82525050565b6000610c178383610bfc565b60208301905092915050565b6000602082019050919050565b6000610c3b82610bd0565b610c458185610bdb565b9350610c5083610bec565b8060005b83811015610c81578151610c688882610c0b565b9750610c7383610c23565b925050600181019050610c54565b5085935050505092915050565b60006020820190508181036000830152610ca88184610c30565b905092915050565b600081519050919050565b600082825260208201905092915050565b60005b83811015610cea578082015181840152602081019050610ccf565b60008484015250505050565b6000601f19601f8301169050919050565b6000610d1282610cb0565b610d1c8185610cbb565b9350610d2c818560208601610ccc565b610d3581610cf6565b840191505092915050565b610d4981610aac565b82525050565b60006060820190508181036000830152610d698186610d07565b9050610d786020830185610d40565b610d856040830184610ba6565b949350505050565b6000602082019050610da26000830184610d40565b92915050565b610db181610b2f565b82525050565b6000602082019050610dcc6000830184610da8565b92915050565b60006020820190508181036000830152610dec8184610d07565b905092915050565b600080fd5b600080fd5b7f4e487b7100000000000000000000000000000000000000000000000000000000600052604160045260246000fd5b610e3682610cf6565b810181811067ffffffffffffffff82111715610e5557610e54610dfe565b5b80604052505050565b6000610e68610a98565b9050610e748282610e2d565b919050565b600067ffffffffffffffff821115610e9457610e93610dfe565b5b610e9d82610cf6565b9050602081019050919050565b82818337600083830152505050565b6000610ecc610ec784610e79565b610e5e565b905082815260208101848484011115610ee857610ee7610df9565b5b610ef3848285610eaa565b509392505050565b600082601f830112610f1057610f0f610df4565b5b8135610f20848260208601610eb9565b91505092915050565b600067ffffffffffffffff821115610f4457610f43610dfe565b5b602082029050602081019050919050565b600080fd5b6000610f6d610f6884610f29565b610e5e565b90508083825260208201905060208402830185811115610f9057610f8f610f55565b5b835b81811015610fd757803567ffffffffffffffff811115610fb557610fb4610df4565b5b808601610fc28982610efb565b85526020850194505050602081019050610f92565b5050509392505050565b600082601f830112610ff657610ff5610df4565b5b8135611006848260208601610f5a565b91505092915050565b60008060006060848603121561102857611027610aa2565b5b600084013567ffffffffffffffff81111561104657611045610aa7565b5b61105286828701610efb565b935050602084013567ffffffffffffffff81111561107357611072610aa7565b5b61107f86828701610fe1565b925050604061109086828701610acd565b9150509250925092565b7f456c656374696f6e206973206e6f742061637469766500000000000000000000600082015250565b60006110d0601683610cbb565b91506110db8261109a565b602082019050919050565b600060208201905081810360008301526110ff816110c3565b9050919050565b7f566f74696e672068617320656e64656400000000000000000000000000000000600082015250565b600061113c601083610cbb565b915061114782611106565b602082019050919050565b6000602082019050818103600083015261116b8161112f565b9050919050565b7f416c726561647920766f74656400000000000000000000000000000000000000600082015250565b60006111a8600d83610cbb565b91506111b382611172565b602082019050919050565b600060208201905081810360008301526111d78161119b565b9050919050565b7f496e76616c69642063616e64696461746520696e646578000000000000000000600082015250565b6000611214601783610cbb565b915061121f826111de565b602082019050919050565b6000602082019050818103600083015261124381611207565b9050919050565b7f4e487b7100000000000000000000000000000000000000000000000000000000600052601160045260246000fd5b600061128482610aac565b91507fffffffffffffffffffffffffffffffffffffffffffffffffffffffffffffffff82036112b6576112b561124a565b5b600182019050919050565b7f4e487b7100000000000000000000000000000000000000000000000000000000600052603260045260246000fd5b7f4e487b7100000000000000000000000000000000000000000000000000000000600052602260045260246000fd5b6000600282049050600182168061133757607f821691505b60208210810361134a576113496112f0565b5b50919050565b600061135b82610aac565b915061136683610aac565b925082820190508082111561137e5761137d61124a565b5b92915050565b60008190508160005260206000209050919050565b60006020601f8301049050919050565b600082821b905092915050565b6000600883026113e67fffffffffffffffffffffffffffffffffffffffffffffffffffffffffffffffff826113a9565b6113f086836113a9565b95508019841693508086168417925050509392505050565b6000819050919050565b600061142d61142861142384610aac565b611408565b610aac565b9050919050565b6000819050919050565b61144783611412565b61145b61145382611434565b8484546113b6565b825550505050565b600090565b611470611463565b61147b81848461143e565b505050565b5b8181101561149f57611494600082611468565b600181019050611481565b5050565b601f8211156114e4576114b581611384565b6114be84611399565b810160208510156114cd578190505b6114e16114d985611399565b830182611480565b50505b505050565b600082821c905092915050565b6000611507600019846008026114e9565b1980831691505092915050565b600061152083836114f6565b9150826002028217905092915050565b61153982610cb0565b67ffffffffffffffff81111561155257611551610dfe565b5b61155c825461131f565b6115678282856114a3565b600060209050601f83116001811461159a5760008415611588578287015190505b6115928582611514565b8655506115fa565b601f1984166115a886611384565b60005b828110156115d0578489015182556001820191506020850194506020810190506115ab565b868310156115ed57848901516115e9601f8916826114f6565b8355505b6001600288020188555050505b50505050505056fea2646970667358221220287ec51b2720de291284126336669c8d299a5d6753c800312b9c32ae5bf160e064736f6c63430008140033",
  "linkReferences": {},
  "deployedLinkReferences": {}
}